{
  "_format": "hh-sol-artifact-1",
  "contractName": "ViolationStorage",
  "sourceName": "contracts/ViolationStorage.sol",
  "abi": [
    {
      "inputs": [
        {
          "internalType": "string",
          "name": "_vehicleNumber",
          "type": "string"
        },
        {
          "internalType": "string",
          "name": "_violationType",
          "type": "string"
        },
        {
          "internalType": "uint256",
          "name": "_amount",
          "type": "uint256"
        }
      ],
      "name": "addViolation",
      "outputs": [],
      "stateMutability": "nonpayable",
      "type": "function"
    },
    {
      "inputs": [
        {
          "internalType": "uint256",
          "name": "index",
          "type": "uint256"
        }
      ],
      "name": "getViolation",
      "outputs": [
        {
          "internalType": "string",
          "name": "",
          "type": "string"
        },
        {
          "internalType": "string",
          "name": "",
          "type": "string"
        },
        {
          "internalType": "uint256",
          "name": "",
          "type": "uint256"
        },
        {
          "internalType": "uint256",
          "name": "",
          "type": "uint256"
        }
      ],
      "stateMutability": "view",
      "type": "function"
    },
    {
      "inputs": [
        {
          "internalType": "uint256",
          "name": "",
          "type": "uint256"
        }
      ],
      "name": "violations",
      "outputs": [
        {
          "internalType": "string",
          "name": "vehicleNumber",
          "type": "string"
        },
        {
          "internalType": "string",
          "name": "violationType",
          "type": "string"
        },
        {
          "internalType": "uint256",
          "name": "amount",
          "type": "uint256"
        },
        {
          "internalType": "uint256",
          "name": "timestamp",
          "type": "uint256"
        }
      ],
      "stateMutability": "view",
      "type": "function"
    }
  ],
  "bytecode": "0x608060405234801561001057600080fd5b50610aa9806100206000396000f3fe608060405234801561001057600080fd5b50600436106100415760003560e01c80634c5765d114610046578063b995bb9514610079578063bc5762c4146100ac575b600080fd5b610060600480360381019061005b9190610487565b6100c8565b6040516100709493929190610553565b60405180910390f35b610093600480360381019061008e9190610487565b61025a565b6040516100a39493929190610553565b60405180910390f35b6100c660048036038101906100c191906106db565b6103aa565b005b60608060008060008086815481106100e3576100e2610766565b5b906000526020600020906004020160405180608001604052908160008201805461010c906107c4565b80601f0160208091040260200160405190810160405280929190818152602001828054610138906107c4565b80156101855780601f1061015a57610100808354040283529160200191610185565b820191906000526020600020905b81548152906001019060200180831161016857829003601f168201915b5050505050815260200160018201805461019e906107c4565b80601f01602080910402602001604051908101604052809291908181526020018280546101ca906107c4565b80156102175780601f106101ec57610100808354040283529160200191610217565b820191906000526020600020905b8154815290600101906020018083116101fa57829003601f168201915b5050505050815260200160028201548152602001600382015481525050905080600001518160200151826040015183606001519450945094509450509193509193565b6000818154811061026a57600080fd5b906000526020600020906004020160009150905080600001805461028d906107c4565b80601f01602080910402602001604051908101604052809291908181526020018280546102b9906107c4565b80156103065780601f106102db57610100808354040283529160200191610306565b820191906000526020600020905b8154815290600101906020018083116102e957829003601f168201915b50505050509080600101805461031b906107c4565b80601f0160208091040260200160405190810160405280929190818152602001828054610347906107c4565b80156103945780601f1061036957610100808354040283529160200191610394565b820191906000526020600020905b81548152906001019060200180831161037757829003601f168201915b5050505050908060020154908060030154905084565b60006040518060800160405280858152602001848152602001838152602001428152509080600181540180825580915050600190039060005260206000209060040201600090919091909150600082015181600001908161040b91906109a1565b50602082015181600101908161042191906109a1565b5060408201518160020155606082015181600301555050505050565b6000604051905090565b600080fd5b600080fd5b6000819050919050565b61046481610451565b811461046f57600080fd5b50565b6000813590506104818161045b565b92915050565b60006020828403121561049d5761049c610447565b5b60006104ab84828501610472565b91505092915050565b600081519050919050565b600082825260208201905092915050565b60005b838110156104ee5780820151818401526020810190506104d3565b60008484015250505050565b6000601f19601f8301169050919050565b6000610516826104b4565b61052081856104bf565b93506105308185602086016104d0565b610539816104fa565b840191505092915050565b61054d81610451565b82525050565b6000608082019050818103600083015261056d818761050b565b90508181036020830152610581818661050b565b90506105906040830185610544565b61059d6060830184610544565b95945050505050565b600080fd5b600080fd5b7f4e487b7100000000000000000000000000000000000000000000000000000000600052604160045260246000fd5b6105e8826104fa565b810181811067ffffffffffffffff82111715610607576106066105b0565b5b80604052505050565b600061061a61043d565b905061062682826105df565b919050565b600067ffffffffffffffff821115610646576106456105b0565b5b61064f826104fa565b9050602081019050919050565b82818337600083830152505050565b600061067e6106798461062b565b610610565b90508281526020810184848401111561069a576106996105ab565b5b6106a584828561065c565b509392505050565b600082601f8301126106c2576106c16105a6565b5b81356106d284826020860161066b565b91505092915050565b6000806000606084860312156106f4576106f3610447565b5b600084013567ffffffffffffffff8111156107125761071161044c565b5b61071e868287016106ad565b935050602084013567ffffffffffffffff81111561073f5761073e61044c565b5b61074b868287016106ad565b925050604061075c86828701610472565b9150509250925092565b7f4e487b7100000000000000000000000000000000000000000000000000000000600052603260045260246000fd5b7f4e487b7100000000000000000000000000000000000000000000000000000000600052602260045260246000fd5b600060028204905060018216806107dc57607f821691505b6020821081036107ef576107ee610795565b5b50919050565b60008190508160005260206000209050919050565b60006020601f8301049050919050565b600082821b905092915050565b6000600883026108577fffffffffffffffffffffffffffffffffffffffffffffffffffffffffffffffff8261081a565b610861868361081a565b95508019841693508086168417925050509392505050565b6000819050919050565b600061089e61089961089484610451565b610879565b610451565b9050919050565b6000819050919050565b6108b883610883565b6108cc6108c4826108a5565b848454610827565b825550505050565b600090565b6108e16108d4565b6108ec8184846108af565b505050565b5b81811015610910576109056000826108d9565b6001810190506108f2565b5050565b601f82111561095557610926816107f5565b61092f8461080a565b8101602085101561093e578190505b61095261094a8561080a565b8301826108f1565b50505b505050565b600082821c905092915050565b60006109786000198460080261095a565b1980831691505092915050565b60006109918383610967565b9150826002028217905092915050565b6109aa826104b4565b67ffffffffffffffff8111156109c3576109c26105b0565b5b6109cd82546107c4565b6109d8828285610914565b600060209050601f831160018114610a0b57600084156109f9578287015190505b610a038582610985565b865550610a6b565b601f198416610a19866107f5565b60005b82811015610a4157848901518255600182019150602085019450602081019050610a1c565b86831015610a5e5784890151610a5a601f891682610967565b8355505b6001600288020188555050505b50505050505056fea2646970667358221220c0c1ed4ee238e0b20ab6661f37ce9ec393e788fd28e440fc05317a9a634dc36f64736f6c63430008140033",
  "linkReferences": {},
  "deployedLinkReferences": {}
}