{
  "_format": "hh-sol-artifact-1",
  "contractName": "TrafficPenalty",
  "sourceName": "contracts/TrafficPenalty.sol",
  "abi": [
    {
      "inputs": [],
      "stateMutability": "nonpayable",
      "type": "constructor"
    },
    {
      "inputs": [
        {
          "internalType": "string",
          "name": "_vehicle",
          "type": "string"
        },
        {
          "internalType": "uint256",
          "name": "_amount",
          "type": "uint256"
        }
      ],
      "name": "addPenalty",
      "outputs": [],
      "stateMutability": "nonpayable",
      "type": "function"
    },
    {
      "inputs": [
        {
          "internalType": "uint256",
          "name": "_id",
          "type": "uint256"
        }
      ],
      "name": "getPenalty",
      "outputs": [
        {
          "internalType": "string",
          "name": "",
          "type": "string"
        },
        {
          "internalType": "uint256",
          "name": "",
          "type": "uint256"
        },
        {
          "internalType": "bool",
          "name": "",
          "type": "bool"
        }
      ],
      "stateMutability": "view",
      "type": "function"
    },
    {
      "inputs": [],
      "name": "owner",
      "outputs": [
        {
          "internalType": "address",
          "name": "",
          "type": "address"
        }
      ],
      "stateMutability": "view",
      "type": "function"
    },
    {
      "inputs": [
        {
          "internalType": "uint256",
          "name": "_id",
          "type": "uint256"
        }
      ],
      "name": "payPenalty",
      "outputs": [],
      "stateMutability": "payable",
      "type": "function"
    },
    {
      "inputs": [
        {
          "internalType": "uint256",
          "name": "",
          "type": "uint256"
        }
      ],
      "name": "penalties",
      "outputs": [
        {
          "internalType": "string",
          "name": "vehicleNumber",
          "type": "string"
        },
        {
          "internalType": "uint256",
          "name": "amount",
          "type": "uint256"
        },
        {
          "internalType": "bool",
          "name": "paid",
          "type": "bool"
        }
      ],
      "stateMutability": "view",
      "type": "function"
    },
    {
      "inputs": [],
      "name": "penaltyCount",
      "outputs": [
        {
          "internalType": "uint256",
          "name": "",
          "type": "uint256"
        }
      ],
      "stateMutability": "view",
      "type": "function"
    }
  ],
  "bytecode": "0x608060405234801561001057600080fd5b50336000806101000a81548173ffffffffffffffffffffffffffffffffffffffff021916908373ffffffffffffffffffffffffffffffffffffffff160217905550610be0806100606000396000f3fe6080604052600436106100555760003560e01c80631142c4b01461005a5780636352a8a6146100765780638da5cb5b146100b557806396e59682146100e05780639ca131e21461011f578063ed5cf5911461014a575b600080fd5b610074600480360381019061006f91906104bc565b610173565b005b34801561008257600080fd5b5061009d600480360381019061009891906104bc565b6101fc565b6040516100ac939291906105a3565b60405180910390f35b3480156100c157600080fd5b506100ca6102bb565b6040516100d79190610622565b60405180910390f35b3480156100ec57600080fd5b50610107600480360381019061010291906104bc565b6102df565b604051610116939291906105a3565b60405180910390f35b34801561012b57600080fd5b506101346103da565b604051610141919061063d565b60405180910390f35b34801561015657600080fd5b50610171600480360381019061016c919061078d565b6103e0565b005b600160008281526020019081526020016000206001015434146101cb576040517f08c379a00000000000000000000000000000000000000000000000000000000081526004016101c290610835565b60405180910390fd5b600180600083815260200190815260200160002060020160006101000a81548160ff02191690831515021790555050565b600160205280600052604060002060009150905080600001805461021f90610884565b80601f016020809104026020016040519081016040528092919081815260200182805461024b90610884565b80156102985780601f1061026d57610100808354040283529160200191610298565b820191906000526020600020905b81548152906001019060200180831161027b57829003601f168201915b5050505050908060010154908060020160009054906101000a900460ff16905083565b60008054906101000a900473ffffffffffffffffffffffffffffffffffffffff1681565b606060008060006001600086815260200190815260200160002060405180606001604052908160008201805461031490610884565b80601f016020809104026020016040519081016040528092919081815260200182805461034090610884565b801561038d5780601f106103625761010080835404028352916020019161038d565b820191906000526020600020905b81548152906001019060200180831161037057829003601f168201915b50505050508152602001600182015481526020016002820160009054906101000a900460ff1615151515815250509050806000015181602001518260400151935093509350509193909250565b60025481565b600260008154809291906103f3906108e4565b919050555060405180606001604052808381526020018281526020016000151581525060016000600254815260200190815260200160002060008201518160000190816104409190610ad8565b506020820151816001015560408201518160020160006101000a81548160ff0219169083151502179055509050505050565b6000604051905090565b600080fd5b600080fd5b6000819050919050565b61049981610486565b81146104a457600080fd5b50565b6000813590506104b681610490565b92915050565b6000602082840312156104d2576104d161047c565b5b60006104e0848285016104a7565b91505092915050565b600081519050919050565b600082825260208201905092915050565b60005b83811015610523578082015181840152602081019050610508565b60008484015250505050565b6000601f19601f8301169050919050565b600061054b826104e9565b61055581856104f4565b9350610565818560208601610505565b61056e8161052f565b840191505092915050565b61058281610486565b82525050565b60008115159050919050565b61059d81610588565b82525050565b600060608201905081810360008301526105bd8186610540565b90506105cc6020830185610579565b6105d96040830184610594565b949350505050565b600073ffffffffffffffffffffffffffffffffffffffff82169050919050565b600061060c826105e1565b9050919050565b61061c81610601565b82525050565b60006020820190506106376000830184610613565b92915050565b60006020820190506106526000830184610579565b92915050565b600080fd5b600080fd5b7f4e487b7100000000000000000000000000000000000000000000000000000000600052604160045260246000fd5b61069a8261052f565b810181811067ffffffffffffffff821117156106b9576106b8610662565b5b80604052505050565b60006106cc610472565b90506106d88282610691565b919050565b600067ffffffffffffffff8211156106f8576106f7610662565b5b6107018261052f565b9050602081019050919050565b82818337600083830152505050565b600061073061072b846106dd565b6106c2565b90508281526020810184848401111561074c5761074b61065d565b5b61075784828561070e565b509392505050565b600082601f83011261077457610773610658565b5b813561078484826020860161071d565b91505092915050565b600080604083850312156107a4576107a361047c565b5b600083013567ffffffffffffffff8111156107c2576107c1610481565b5b6107ce8582860161075f565b92505060206107df858286016104a7565b9150509250929050565b7f57726f6e6720616d6f756e740000000000000000000000000000000000000000600082015250565b600061081f600c836104f4565b915061082a826107e9565b602082019050919050565b6000602082019050818103600083015261084e81610812565b9050919050565b7f4e487b7100000000000000000000000000000000000000000000000000000000600052602260045260246000fd5b6000600282049050600182168061089c57607f821691505b6020821081036108af576108ae610855565b5b50919050565b7f4e487b7100000000000000000000000000000000000000000000000000000000600052601160045260246000fd5b60006108ef82610486565b91507fffffffffffffffffffffffffffffffffffffffffffffffffffffffffffffffff8203610921576109206108b5565b5b600182019050919050565b60008190508160005260206000209050919050565b60006020601f8301049050919050565b600082821b905092915050565b60006008830261098e7fffffffffffffffffffffffffffffffffffffffffffffffffffffffffffffffff82610951565b6109988683610951565b95508019841693508086168417925050509392505050565b6000819050919050565b60006109d56109d06109cb84610486565b6109b0565b610486565b9050919050565b6000819050919050565b6109ef836109ba565b610a036109fb826109dc565b84845461095e565b825550505050565b600090565b610a18610a0b565b610a238184846109e6565b505050565b5b81811015610a4757610a3c600082610a10565b600181019050610a29565b5050565b601f821115610a8c57610a5d8161092c565b610a6684610941565b81016020851015610a75578190505b610a89610a8185610941565b830182610a28565b50505b505050565b600082821c905092915050565b6000610aaf60001984600802610a91565b1980831691505092915050565b6000610ac88383610a9e565b9150826002028217905092915050565b610ae1826104e9565b67ffffffffffffffff811115610afa57610af9610662565b5b610b048254610884565b610b0f828285610a4b565b600060209050601f831160018114610b425760008415610b30578287015190505b610b3a8582610abc565b865550610ba2565b601f198416610b508661092c565b60005b82811015610b7857848901518255600182019150602085019450602081019050610b53565b86831015610b955784890151610b91601f891682610a9e565b8355505b6001600288020188555050505b50505050505056fea2646970667358221220ead20441e2bd43ea6f27d7cd0879d95fa0874cece5e558b5a12a33d2a915750a64736f6c63430008140033",
  "linkReferences": {},
  "deployedLinkReferences": {}
}